:10000000021AB715291529A82922220220EE122545
:10001000BC7F1E121EA07BFF7A2779B202206D538F
:1000200087DF32021F409008A27401F0A3F07F1B0B
:10003000021EA002001F42089C0000440898000015
:1000400000004208A0000042089E00004208A200F2
:10005000004101AB004101AC00410000004101AE94
:10006000004101AF004101B3004101A8004101ADD1
:10007000004101B0004201B100004201A90000416D
:10008000006700664001B4000000000000000000AE
:100090000000000000000000000000000000000060
:1000A0000000000000000000000000000000000050
:1000B0000000000000000000000000000000000040
:1000C0000000000000000000000000000000000030
:1006C0000000000000000060660001000000000063
:1006D000000000000000000000000000000000001A
:1006E000000000000000000000000000000000000A
:1006F00000000000000000000000000000000000FA
:1007000000000000000000000000000000000000E9
:1007100000000000000000000000000000000000D9
:1007200000000000000000000000000000000000C9
:1007300000614000680000000000000000000000B0
:1007400000000000000000000000000000000000A9
:100750000000000000000000000000000000000099
:100760000000000000000000000000000000000089
:100770000000000000000000000000000000000079
:100780000000000000000000000000000000000069
:100790000000000000000000000000000000000059
:1007A0000000000000000000000000000000000049
:1007B0000000000000000000000000000000000039
:1007C0000000000000000000000000000000000029
:1007D0000000000000000000000000000000000019
:1007E0000000000000000000000000000000000009
:1007F00000000000000000000000000000000000F9
:1008000000000000000000000000000000000000E8
:1008100000000000000000000000000000000000D8
:1008200000000000000000000000000000000000C8
:1008300000000000000000000000000000000000B8
:1008400000000000000000000000000000000000A8
:100850000000000000000000000000000000000098
:100860000000000000000000000000000000000088
:100870000000000000602207F400000000000000FB
:100880000000000000000000000000000000000068
:10089000000000000000000000000011080000003F
:1008A0000000000000000000000000000000608068
:1008B0000818000000000000000000000000000018
:1008C0000000000000000000000000000000000028
:1008D0000000000000000000000000000000000018
:1008E0000000000000000000000000000000000008
:1008F00000000000000000000000000000000000F8
:1009000000000000000000000000000000000000E7
:1009100000000000000000000000000000000000D7
:1009200000000000000000000000000000000000C7
:10093000000041081700410816004108A40000E724
:1009400009F608DFFA8046E709F208DFFA803E88F8
:10095000828C83E709F0A3DFFA8032E309F608DF2F
:10096000FA8078E309F208DFFA807088828C83E3EA
:1009700009F0A3DFFA806489828A83E0A3F608DFA6
:10098000FA805889828A83E0A3F208DFFA804C80DB
:10099000D280FA80C680D4806980F2803380108053
:1009A000A680EA809A80A880DA80E280CA803389B3
:1009B000828A83ECFAE493A3C8C582C8CCC583CCF1
:1009C000F0A3C8C582C8CCC583CCDFE9DEE7800DC3
:1009D00089828A83E493A3F608DFF9ECFAA9F0EDA3
:1009E000FB2289828A83ECFAE0A3C8C582C8CCC501
:1009F00083CCF0A3C8C582C8CCC583CCDFEADEE8CF
:100A000080DB89828A83E493A3F208DFF980CC88B3
:100A1000F0EF60010E4E60C388F0ED2402B40400D4
:100A200050B9F582EB2402B4040050AF2323458271
:100A30002390098F73BB010689828A83E0225002CA
:100A4000E722BBFE02E32289828A83E49322BB0170
:100A50000989828A83F8E028F022500327F722BB15
:100A6000FE05F8E328F3228A838982F8E49328229A
:100A7000EF8DF0A4A8F0CF8CF0A428CE8DF0A42E9A
:100A8000FE22BC000BBE0029EF8DF084FFADF022EA
:100A9000E4CCF875F008EF2FFFEE33FEEC33FCEEFC
:100AA0009DEC984005FCEE9DFE0FD5F0E9E4CEFDEF
:100AB00022EDF8F5F0EE8420D21CFEADF075F008C2
:100AC000EF2FFFED33FD4007985006D5F0F222C31B
:100AD00098FD0FD5F0EA22C5F0F8A3E028F0C5F0A4
:100AE000F8E582158270021583E038F022E88FF075
:100AF000A4CC8BF0A42CFCE98EF0A42CFC8AF0EDA5
:100B0000A42CFCEA8EF0A4CDA8F08BF0A42DCC3858
:100B100025F0FDE98FF0A42CCD35F0FCEB8EF0A490
:100B2000FEA9F0EB8FF0A4CFC5F02ECD39FEE43C4A
:100B3000FCEAA42DCE35F0FDE43CFC2275F00875EE
:100B40008200EF2FFFEE33FECD33CDCC33CCC58208
:100B500033C5829BED9AEC99E58298400CF582EEC4
:100B60009BFEED9AFDEC99FC0FD5F0D6E4CEFBE4AC
:100B7000CDFAE4CCF9A88222B800C1B90059BA0074
:100B80002DEC8BF084CFCECDFCE5F0CBF97818EFCF
:100B90002FFFEE33FEED33FDEC33FCEB33FB10D7D0
:100BA00003994004EB99FB0FD8E5E4F9FA22781891
:100BB000EF2FFFEE33FEED33FDEC33FCC933C910EC
:100BC000D7059BE99A4007EC9BFCE99AF90FD8E01E
:100BD000E4C9FAE4CCFB2275F010EF2FFFEE33FEF0
:100BE000ED33FDCC33CCC833C810D7079BEC9AE863
:100BF00099400AED9BFDEC9AFCE899F80FD5F0DAE4
:100C0000E4CDFBE4CCFAE4C8F922EB9FF5F0EA9ED0
:100C100042F0E99D42F0E89C45F022E6FC08E6FD42
:100C200008E6FE08E6FF22ECF608EDF608EEF60808
:100C3000EFF622ECF0A3EDF0A3EEF0A3EFF022A488
:100C40002582F582E5F03583F58322E52924FCF53C
:100C500029F8120C27121D68C000A829120C1BD0FD
:100C600000121D44500F121D6AC000A829120C1B4F
:100C7000D000120E73121D68C000A829120C1BD0E0
:100C800000121D34121D71121D445015121D6AC030
:100C900000A829120C1BD000121D34121D73120E55
:100CA00066121D71C000A829120C1BD000121D3441
:100CB000121D7A121D445015121D73C000A829126E
:100CC0000C1BD000121D34121D7C120E66121D7AF0
:100CD000C000A829120C1BD000121D34121D831253
:100CE0001D445018121D7CC000A829120C1BD000F6
:100CF000121D347B807A967998120E4B121D83C098
:100D000000A829120C1BD000121D34121D8C121DBC
:100D1000445018121D83C000A829120C1BD00012C9
:100D20001D347B407A42790F120E4B121D8CC0008D
:100D3000A829120C1BD000121D34121D50121D4484
:100D40005015121D8CC000A829120C1BD000121DBA
:100D500034121D50120E73121D50C000A829120C1F
:100D60001BD000121D34E47B107A27121D4250174D
:100D700009121D52C000A829120C1BD000121D34EC
:100D80007B107A27120E58E47B107A27F9F8C000FE
:100D9000A829120C1BD000121D34E47BE87A031240
:100DA0001D425019E47B107A27F8C000A829120CC4
:100DB0001BD000121D347BE87A03120E58E47BE846
:100DC0007A03F9F8C000A829120C1BD000121D34B8
:100DD0007B64121D405017E47BE87A03F8C000A83A
:100DE00029120C1BD000121D347B64120E3CE47BD4
:100DF00064FAF9F8C000A829120C1BD000121D34A7
:100E00007B0A121D405015E47B64F8C000A829122B
:100E10000C1BD000121D347B0A120E3CE47B0AFA34
:100E2000F9F8C000A829120C1BD000120B78EB2493
:100E300030FF1223ADE5292404F52922E4FAF9F85C
:100E4000120B78EF2430FF1223AD227800120B78BA
:100E5000EF2430FF1223AD22E4F9F8120B78EF24CF
:100E600030FF1223AD227B00120B78EF2430FF12EB
:100E700023AD22120B78EF2430FF1223AD22900015
:100E800067E06003020FFF12259190089DE004F0D7
:100E9000700690089CE004F0900898E0FCA3E0FD48
:100EA000A3E0FEA3E02401FFE43EFEE43DFDE43CBC
:100EB000FC900898120C33E4F519900000E0FFE56F
:100EC00019D39F505612212CE0FEA3E0D39400EEDC
:100ED00094004043122149122140403B12212C74BE
:100EE000FFF5F0120AD712212CE0FEA3E04E702786
:100EF000122149E0FDAF1912147975F00AE519A421
:100F0000246EF582E5F03400F583E0FEA3E0FF12E5
:100F1000212CEEF0A3EFF00519809F90089EE07061
:100F200002A3E06003020FF19001B0122140402BB8
:100F300012213D40269001B0E014F0E0649B600374
:100F4000020FFF122202800C9001B3E0FF9001AE6D
:100F5000E0B50705121EF180EF80489001ABE0C3B9
:100F6000941F74809480500D9001ACE0C3941F7462
:100F70008094804008122202121EF18026D3900035
:100F800002E09400900001E0940050099007F4E022
:100F900012214240151222B450659001ADE0700359
:100FA000121EF19000677401F02212213D403E9024
:100FB00008A1E024FFF09008A0E034FFF0E0700208
:100FC000A3E0703B12215A122202E49001AEF0908D
:100FD000006CE0FFA3E09001B1CFF0A3EFF0E4904C
:100FE00001A8F09001AD04F0900067F02212215AA0
:100FF0002290089FE024FFF090089EE034FFF0224A
:10100000900067E0700302114E9001B3E0FF900181
:10101000AEE06F700302114BD014D014D014D01373
:10102000D012D011D010D00FD00ED00DD00CD00BCC
:10103000D00AD009D008D015D016E49001B0F090B5
:101040000067E064017052F519121E965010740882
:101050002519F8E6FF121E4AEFF0051980EB900102
:10106000AFE0FFAD81C3ED9FFFE49400FED3EF94AA
:1010700000EE648094804016E51994327480948068
:10108000500CD009121E4AE509F0051980D0E51967
:1010900014FF121E68EFF08009121E68E4F0900140
:1010A000A8F09001AEE09001B3F0121E6CE0702D3C
:1010B0009001B1E0FCA3E0FDECF515EDF516900113
:1010C000B3E0D394007480948040519001A9E0FE75
:1010D000A3E0F518EEF517C018C017803F121E6880
:1010E000E0FFD394007480948040318F19D3E519C8
:1010F000940E74809480400C121E4AE0F508C008DB
:10110000151980E9E4F519121E965010121E4AE0D6
:10111000FF74082519F8A607051980EB121E7B85B8
:1011200008E08509F0850A83850B82850CD0850D42
:1011300000850E01850F02851003851104851205B7
:10114000851306851407C016C01532121E7B227A3D
:1011500026792A1212667F361224E37F2E1224E3A8
:101160007F381224E37F0A1224E37A26793E121292
:10117000667F361224E37BFF7A26795612206D7B38
:10118000FF7A26797212206D7BFF7A2679831220EE
:101190006DE4F51A1219935030E51A2465FFE43412
:1011A000218F82F583E493FF3395E0FEE51A24F165
:1011B000F8E6FD3395E0FCEF2DFFEE3CFE3395E0C5
:1011C000FDFC120C4B051A80CB7F0A1224E37BFF37
:1011D0007A26798C12206DE4F51A1219935014E5D1
:1011E0001A24F1F8E6FF3395E0FEFDFC120C4B05E6
:1011F0001A80E77F0A1224E37BFF7A267995122072
:101200006D12197ACEC313CE13D8F9F51AD39450B0
:101210007480948040087BFF7A26799F803DD3E5D7
:101220001A943C7480948040087BFF7A2679A480CD
:101230002AD3E51A94287480948040087BFF7A268C
:1012400079A98017D3E51A9414748094807BFF40A9
:10125000067A2679AE80047A2679B312206D7F0A49
:101260001224E30217B17BFF12206D7F311224E3B9
:101270007F2E1224E322E4F51AF51BF51CF51D7BE5
:10128000FF7A26799512206D7BFF7A28793D12200E
:101290006D12197ACEC313CE13D8F9F51B8E1A0529
:1012A0001BE51B7002051AAE1A12134E1213837A35
:1012B00028794712206DE4F51AF51B90006A12197F
:1012C00051FEA3E0D39400EE9400500F90006912F9
:1012D0001951D39400748094804008051DE51D7059
:1012E00002051C051BE51B7002051A6420451A70D7
:1012F000CAAE1CAF1D7C007D64120A70EF7805CE6B
:10130000C313CE13D8F9F51B8E1A12134E12138382
:101310007A28795412206DE5C17BFF30E5067A28E2
:10132000796180047A28796612206D7BFF7A2879AA
:101330006B12206D900898E0FCA3E0FDA3E0FEA3F3
:10134000E0FF120C4B7BFF7A28797C02206DFF7C3A
:10135000007D64120A82EF2430FF1223ADAE1AAF73
:101360001B7C007D64120A827E007F0ACFCDCFCE27
:10137000CCCE120A82EF2430FF1223ADAE1AAF1B7F
:101380007C00227D0A120A82ED2430FF1223AD7FF9
:10139000251223AD7BFF229001AEE075F00AA42454
:1013A00069F582E5F03400F583229007F4E0FFD37D
:1013B00094007480948022F583E4F0A3F075F00A21
:1013C000EFA4246EF582E5F03400F583E4F0A3F099
:1013D00022FF75F00AA42468F582E5F03400F58355
:1013E000221529A829A6051529A829A60722FF75CF
:1013F000F003A42401F582E4340022EF75F003A485
:101400002403F582E43400F5832275F00AA4246CE9
:10141000F582E5F03400F58322900000E0FFA82972
:10142000E6FE9F2275F00AA42470F582E5F03400F0
:101430002275F00AA4246AF582E5F034002274F4DF
:101440002EF582E43407F58322C3942074809480BF
:101450002274012FF974003EA801FC7D0122A82905
:101460000808E6FFA829E622E5292403F8E6227EFB
:10147000007F03120A0FA829221213E1152915294A
:101480009001A8E0FF121468D39F40459001B3E09B
:101490001213AF403C90089EE07002A3E07032123D
:1014A0002202A8290808E69001AEF0E0FF12139B83
:1014B000E09001A8F0EF12140AE0FFA3E09001B160
:1014C000CFF0A3EFF09001AD7401F0900067F080D1
:1014D0007D121C479001ABE01214495071A829E419
:1014E000F6A829E6FF12144950641213FBE0FFE549
:1014F000292403F8EFC3964005A8290680E390014C
:10150000ABE0A82908F6A929A82908E6FFD3974047
:101510001FEF75F003A4FFAEF024FEF974FF3EFA4E
:101520007B01C001121451D00112146F081680D62D
:1015300012145EFD1213EFF583E4F0A3EFF0121422
:1015400068FFED1213FCEFF09001ABE004F0E52929
:101550002404F529228B1A8A1B891CE4F520F52125
:10156000FFFEF522F523F524F525F526851D2485B6
:101570001E25851F2685241D85251E85261F1219DB
:10158000401224B17E00EF251CF51CEE351BF51B27
:10159000E4FF121940120A35FC6D603BEC12191978
:1015A000400FAB1DAA1EA91F120A35C312197340A2
:1015B0000A12190F4036121972503112190F4005D4
:1015C00012197240057EFF7FFF2212194A12191567
:1015D00040A3121972809E1219877401251FF51FEE
:1015E000E4351EF51E0FBF00010E80A6121987AB51
:1015F0001AFAA91C12196BC3943174809480402785
:10160000D3EF943974809480501DEF24D0FBEE34D6
:10161000FFFAAE22AF237C007D0A120A70EF2BF591
:1016200023EE3AF52280C5AE22AF232215291529D3
:101630001213AA4046A82908EFF612139BE0900166
:10164000A8F0A829E4F69001ACE0FFA829E6FEC3C3
:101650009F501474F52EF582E43407F583E0FD12F3
:10166000143EEDF00680DF12143EE4F0D3EF1213C7
:10167000B040069001ACE014F0807B121C47900053
:1016800001E0FEA3E0FFD39400EE9400400DA829F2
:1016900008A607A3E09001A8F080129008A07403A8
:1016A000F0A374E8F0E49001A8F0FF804EA829E4CC
:1016B000F69001ABE0FFA829E6FEC39F501EEE7531
:1016C000F003A4FFAEF02404F974003EFA7B01C0DD
:1016D00001121451D00112146F0680D5A829E61208
:1016E00013EE1213CA1213FBE4F09001ABE01213D5
:1016F000AF4003E014F0A82908E6FF0529052922D8
:101700007B017A0879187D281222DB751D01751E70
:1017100008751F187BFF7A28797E121555EE600335
:101720000217ADEF14B4120040030217AD90173B3F
:1017300075F003A4C58325F0C583730217710217E2
:101740007402177702177A02177D02178002178337
:1017500002178602178902178C02178F021792024E
:10176000179502179802179B02179E0217A10217DE
:10177000A4022524022327021F8D02114F022349B0
:1017800002250902240A02246002247B0225300279
:10179000253C02000E0223020221650220250224BC
:1017A000440217B17BFF7A28797E021CC11225649E
:1017B000227A26790E1218087B807A5179017800F6
:1017C000120B78120C4B7A26791B121808E47B1046
:1017D0007A0EF9F8120B787B1812184D7A26791FB9
:1017E0001218267B3C12184D7A267923121826AC43
:1017F00000AD01AE02AF03120C4B7BFF7A267927B6
:1018000012206D7F0A0224E37BFF12206DE47BE847
:101810007A03F9F8900898E0FCA3E0FDA3E0FEA3AA
:10182000E0FF120B78227BFF12206DE47BE87A0345
:10183000F9F8900898E0FCA3E0FDA3E0FEA3E0FF28
:10184000120B78E47B3CFAF9F8120B7822E4FAF9EF
:10185000F8120B78AC00AD01AE02AF03120C4B22B4
:10186000EFC39408748094805058ED14601E146087
:101870002C14603C2403600302190EA807740108AD
:101880008002C333D8FCF452B752B822A8077401BF
:10189000088002C333D8FCFEF452B78021A8077435
:1018A00001088002C333D8FCFE42B7EEF452B822DE
:1018B000A8077401088002C333D8FCFE42B7EE4289
:1018C000B822ED1460191460251460332403703EAF
:1018D0001225768002C333D8FCF452B652B52212D8
:1018E00025768002C333D8FCFEF452B6801D122543
:1018F000768002C333D8FCFE42B6EEF452B5221213
:1019000025768002C333D8FCFE42B6EE42B522AB48
:101910001DAA1EA91F120A35FDD39440748094801D
:101920002215291529A82922900817E0C39480744C
:10193000809480227418251AF582E43408F58322F5
:10194000AB1DAA1EA91F120A35FDAB1AAA1BA91CA2
:101950002275F00AE51B120C3FE51A75F00AA42562
:1019600083F583E022AB1AAA1BA91C120A35FF7E5D
:101970000022ED947B74809480229001ABE075F09E
:1019800064A4AEF07805227401251CF51CE4351B17
:10199000F51B22C3E51A94077480948022E5812404
:1019A000FE9001AFF0E49001A8F09008A07403F05D
:1019B000A374E8F07E257F4812000A9001A9EEF09A
:1019C000A3EFF07D037F041218607D027F011218DF
:1019D000601224F9122496122428122598E4F6089D
:1019E000F6122598F608F67B01FDFF121B4312251F
:1019F00098760008762612259876000876027B01F4
:101A00007D007F1B121B437F047E001224CB9008B5
:101A1000A2E0640170097BFF7A2879F802206D7BCF
:101A2000FF7A29791312206D80FE900817E0701953
:101A3000121921761D087695121921F60876057B74
:101A40000CFD7F1C121B438009900188E4F0A374F5
:101A500005F0900816E060051225CD8047AF99C3C8
:101A6000EF9409748094804011AF99D3EF947F7400
:101A70008094805005121928402AC2ACE4900817BF
:101A8000F012192B7BFF40097A2579D312206D8043
:101A9000137A2579EB12206D7BFF7A2679001220CC
:101AA0006D1225B0121928500DE0FF04F074182FA4
:101AB000121938E599F022787FE4F6D8FD7581296E
:101AC000021AFE021DF2E493A3F8E493A34003F686
:101AD0008001F208DFF48029E493A3F85407240C72
:101AE000C8C333C4540F4420C8834004F456800153
:101AF00046F6DFE4800B01020408102040809000CD
:101B000036E47E019360BCA3FF543F30E509541FC7
:101B1000FEE493A360010ECF54C025E060A840B856
:101B2000E493A3FAE493A3F8E493A3C8C582C8CAD4
:101B3000C583CAF0A3C8C582C8CAC583CADFE9DEA7
:101B4000E780BE1529A829A6031213E1C2AF12141B
:101B50005EFE1213D2EFF075F00AEE12139EEFF054
:101B600008E6FFFDA829E6FE121431F583E4F0A390
:101B7000EDF0E5292405F8E6FC08E6FDEE12140A6E
:101B8000ECF0A3EDF0EF600CA829E6FF121424128C
:101B900013B78026121468FC08E6FDEE121424F533
:101BA00083ECF0A3EDF075F00AEEA4246EF582E567
:101BB000F03400F583ECF0A3EDF0C31214194002E9
:101BC000EEF0D2AFE5292407F529228B1A8A1B896A
:101BD0001CE4F520F51FF51EF51D122234D3EF94F9
:101BE0002FEE648094804056EF943AEE64809480A7
:101BF000504CE47F0AFEFDFCAB20AA1FA91EA81DC5
:101C0000120AEDA804C005C006C007122234EF2452
:101C1000D0FFEE34FFFE3395E0FDFCD003D002D0C0
:101C200001EB2FF520EA3EF51FE93DF51EE83CF5F6
:101C30001D7401251CF51CE4351BF51B809CAF2091
:101C4000AE1FAD1EAC1D221529900001E07002A34D
:101C5000E070099001ABE01213AF50179001ABE0B8
:101C60001213EEF583E0FCA3E04C7007D3EF1214DF
:101C70004A404BE49001ABF0A8297620A829E6FF62
:101C8000FD7C00C3748094804034EF1213EFF58321
:101C9000E0FEA3E04E601EE6FF75F003A42404F509
:101CA00082E43400F583E0FAA3E04A7008EF049080
:101CB00001ABF08009ED4C6005A8291680BE05290E
:101CC000228B1A8A1B891CE4F51D7BFF7A28790F69
:101CD00012206D1219656053C39441748094804042
:101CE00016D3EF947A74809480500C120A35FF1248
:101CF00023ADE4F51D8027121965C39430748094D8
:101D000080401BD3EF9439748094805011E51D708E
:101D10000D7F0D1223AD7F0A1223AD751D017401D5
:101D2000251CF51CE4351BF51B80A87BFF7A287960
:101D30002E02206D120B78AC00AD01AE02AF032273
:101D4000E4FAF9F8120B78E4FBFAF9F8C3020C0A8A
:101D500079017BA07A86780022A829860308E6FA12
:101D600008E6F9120A35FF227B007AE4790B7854F1
:101D7000227B007ACA799A783B227B007AE179F556
:101D80007805227B807A9679987800227B407A4287
:101D9000790F7800227F1C121EA0751D01751E0888
:101DA000751F187BFF7A2579CE121FD95005122393
:101DB0008C800E900816E060051225CC8003121767
:101DC00000E4900817F0900817E0FF12192C501C3F
:101DD00074182F121938E06013900817E0241812B5
:101DE0001938E4F0900817E004F080DAE49008175E
:101DF000F02212199D12000376250876AB1200031B
:101E000076010876F47B0A7D007F0F121B431200D7
:101E10000376200876AF12000376010876F47B0182
:101E20007D007F0B121B4312000376250876C0123B
:101E30000003E4F608F67B0A7DFF7F0C121B43B219
:101E4000877FF47E011224CB80F59001B3E075F01A
:101E500032A424B5F582E5F03401F583E582251935
:101E6000F582E43583F583229001B3E075F032A466
:101E700024B4F582E5F03401F58322E4900067F0A4
:101E80009001ADF09001AEF09001B074FFF0E490DD
:101E9000089EF0A3F022C3E519940F748094802269
:101EA0001213E71529C2AFA82908E61213D1E4F0EE
:101EB00075F00AEF12139EE4F0EF1214311213B70B
:101EC000EF1214241213CAA8297620A829E61213A7
:101ED000AE401775F00AEF1213D5E07008E61490C3
:101EE0000000F08005A8291680E1D2AF0529052958
:101EF0002212162C9001AEEFF0E0FF12140AE0FD62
:101F0000A3E09001B1CDF0A3EDF075F00AEF12134C
:101F10009EE0C3940A748094805006121397E014D4
:101F2000F0121397E070129001AEE01213D1E0FEB0
:101F300075F00AEF12139EEEF09001AD7401F022DD
:101F4000C0E0C0F0C083C082C0D075D000C000C067
:101F500001C002C003C004C005C006C00730980716
:101F6000121A2AC298800B3099089008A47401F0C4
:101F7000C299D007D006D005D004D003D002D0013A
:101F8000D000D0D0D082D083D0F0D0E0327B017AA4
:101F90000879187D281224B1EF04F51AC3E51A1246
:101FA000192D5034121934E0FF6429602BEF645C62
:101FB000701A7419251AF582E43408F583E0B46EBA
:101FC0000B7F0A1224E3051A051A8008121934E05F
:101FD000FF1224E3051A80C4228B1A8A1B891CE491
:101FE000FFAB1AAA1BA91C120A35FEFD3395E04D62
:101FF000700CEFD39400748094804002D322AB1D08
:10200000AA1EA91F120A356E6002C3227401251C84
:10201000F51CE4351BF51B7401251FF51FE4351E67
:10202000F51E0F80BC7BFF7A2779F812206DE4F54E
:102030001AC3E51A942074809480502C75F00AE538
:102040001AA42468F582E5F03400F583E0D3940007
:1020500074809480400EAF1AE4FCFDFE120C4B7F9E
:102060002C1224E3051A80C97F0A0224E3152915DE
:10207000291529A829A60308A60208A601121D5998
:10208000FD3395E04D6021EFB40A097F0D1223ADB9
:102090007F0A8003121D591223ADA8290808740174
:1020A00026F618E436F680D505290529052922E407
:1020B000F527F52812000376200876AF120003F604
:1020C00008F67B017DFF7F0B121B430528E528AE38
:1020D000277002052714C39432EE94004007E4F5FC
:1020E00027F528B2807F0A7E0012236B80DDC0E0D6
:1020F000C0F0C083C082C0D075D000C000C001C095
:1021000002C003C004C005C006C007120E7E121034
:1021100000D007D006D005D004D003D002D001D023
:1021200000D0D0D082D083D0F0D0E03275F00AE574
:1021300019A42470F582E5F03400F583229001B3F0
:10214000E0D39400748094802275F00AE519A424E9
:1021500069F582E5F03400F583229008A07403F05D
:10216000A374E8F02212217F1223EC7BFF7A2779F7
:10217000D012206D12217F120C4B7F0A0224E37BC8
:10218000017A0879187D281224B17E0074192FF97C
:10219000EE3408FA7B01121BCB221223CD762208E3
:1021A000768A1223CD76130876881223D9121B4320
:1021B0001223CD76250876521223CD760008760AB2
:1021C0001223E5121B437580FFC283C282221223B1
:1021D000CD76220876601223CD76130876881223F6
:1021E000D9121B431223CD76250876521223CD76C1
:1021F0000008760A1223E5121B437580FFC280C2D5
:102200008522E4FFEF121449502974F42F1214416F
:10221000E0FE9001B3E0FDEE6D6003EE7012900100
:10222000ACE024F4121441EDF09001ACE004F02293
:102230000F80D122AB1AAA1BA91C120A35FF3395B5
:10224000E0FE22740129F9E43AFA22120A35FFF578
:10225000823395E0F583458222E583648094802271
:102260001223CD762108769A1223CD1223D4121B85
:10227000431223CD76250876C31223CD1223E01214
:102280001B437580FFC284C280221223CD762108B1
:1022900076CE1223CD1223D4121B431223CD7625E2
:1022A0000876C61223CD1223E0121B437580FFC2AD
:1022B00081C28322900003E0FF9001A8E0FEC39F4B
:1022C0005001221213AA401175F00AEF12139EE07A
:1022D000FFEEC39F500122C322C32212224B602172
:1022E000EF6D601DD3E5829460122259400EE582A5
:1022F000947B122259500574E0120A4E1222438038
:10230000DA2212192176250876B8121921760508E5
:1023100076DC7B017D007F1E121B431225177BFF9D
:102320007A2779C102206D7BFF7A2679B812206D59
:1023300012192176250876B0121921760B0876B885
:102340007B097D007F1D021B43121921761208763E
:102350007612192176010876F47B017D007F1A122E
:102360001B437BFF7A2679CF02206D9001B3E07585
:10237000F00A122131EEF0A3EFF09001ADE070030E
:10238000121EF19000677401F0D28D22900816E0C1
:102390007F0070027F01900816EFF07BFF60067AE5
:1023A0002779DC80047A2779EA12206D22C299E429
:1023B0009008A4F08F9930AC069008A4E070062035
:1023C000ACF43099F1C299E49008A4F022152915D3
:1023D00029A82922760B0876B87B017D007F0A2286
:1023E00076010876F47B017D007F0B221213E7A8AB
:1023F00029E612139BE0FD1213AF400280047D0911
:10240000A829E6FF12147905292212255B7BFF7AA1
:1024100027790C12206D7BFF7A27791D12206D7BA6
:10242000FF7A27793502206D12259876250876B82F
:1024300012259876050876DC7B017D007F1E121B35
:10244000430225177BFF7A28790212206D90089CA1
:10245000E0FEA3E0FFE4FCFD120C4B7F0A0224E344
:102460007BFF7A27794012206D1225BC1225887BCC
:10247000FF7A27795312206D0225177BFF7A27797F
:102480006612206D1225BC12257F7BFF7A27797991
:1024900012206D022517759850538EBF538EFE5330
:1024A000890F758BFC758DFFC2ABD28ED2ACD2AFCB
:1024B00022E4FFEFC394FE74809480500D120A351D
:1024C000B50501220F12224380E922AD07AC06D3E5
:1024D000ED9400EC9400400A12256DED1D70F01C87
:1024E00080ED228F1BE51BB40A097F0D1223AD7FFF
:1024F0000A8002AF1B1223AD22438901758CF87547
:102500008ACDD28CD2A9D2AF227F1A121EA07BFF15
:102510007A2679E202206D43C12043C11043C108ED
:1025200043C106227BFF7A2679C412206D0225B4AE
:1025300012259F7BFF7A27798C02206D1225A57BBF
:10254000FF7A27799F02206D9000677402F0D28D88
:1025500080FED281D2847F0B021EA01225BCE490A3
:1025600008A3F0227BFF7A2679F502206D7F1D7E7D
:10257000B7DEFEDFFC22EF24F8FEF8740108221219
:1025800025A54387020225C91225A54387010225F7
:10259000C9758CF8758ACD2215291529A8292243D9
:1025A000BB800225C953BB7F0225C97F0C0223ECE7
:1025B00075C7602275C7202243C1102253C1DF2294
:1025C000B28122B28422B28122000022222223532D
:1025D000415500CAE4C8EBB5C4CABEDD2CB3ACB3E8
:1025E000F6BDD3CAD5B7B6CEA70A00C7EBD7A2D2DD
:1025F000E22CCAE4C8EBB3F6CFD6D2ECB3A30A0000
:10260000BCB4BDABD6D8C6F4CFB5CDB30A00D2D1D9
:10261000C1ACD0F8D4CBD0D03A2000CCEC2000CA4A
:10262000B12000B7D62000C3EB00CFB5CDB3B0E6E4
:10263000B1BE3A4E6572766552544F532000CFB505
:10264000CDB3C4DAB2BFB0E6B1BE3A4E65727665BC
:1026500052544F5320002E5354433841384B363494
:1026600053344131324032322E313138344D487A90
:102670000A00BFAAB7A23AC2F3CCD8CAB5D1E9CAF8
:10268000D20A00B2FAC6B749443A2000C9E8B1B844
:1026900049443A2000CFB5CDB3D7B4CCAC3A00BA58
:1026A000DCB2EE00BDCFB2EE00BBB9D0D000BDCFE2
:1026B000BAC300BADCBAC30033C3EBBAF3D6D8C688
:1026C000F4210A00BCB4BDABD6D8C6F4210A00D2AE
:1026D000D1B4F2BFAACFB5CDB3BCE0CAD3C6F721FF
:1026E0000A00D2D1B9D8B1D5CFB5CDB3BCE0CAD3E9
:1026F000C6F7210A00CAE4C8EBB5C4CFB5CDB3C351
:10270000FCC1EEB2BBB4E6D4DA210A00D2D1B9D80A
:10271000B1D5C8CECEF1CFB5CDB3210A00B4AEBF8E
:10272000DAB5C8B9A6C4DCA3ACCEDEB7A8D4CBD08A
:10273000D021210A00B6CFB5E7BBD6B8B4210A0034
:10274000BCB4BDABBDF8C8EBBFD5CFD0C4A3CABD28
:10275000210A00D2D1B4D3BFD5CFD0C4A3CABDBB48
:10276000D6B8B4210A00BCB4BDABBDF8C8EBB5F413
:10277000B5E7C4A3CABD210A00D2D1B4D3B5F4B51C
:10278000E7C4A3CABDBBD6B8B4210A00D2D1BDF8F4
:10279000C8EBB5CDB9A6BAC4C4A3CABD210A00D23C
:1027A000D1BDF8C8EBB8DFB9A6BAC4C4A3CABD216D
:1027B0000A00D2D1B9D8B1D5BFB4C3C5B9B7210ABF
:1027C00000D2D1BFAAC6F4BFB4C3C5B9B7210A00AD
:1027D000D2D1C6F4B6AFD3A6D3C33A00D3C3BBA7F6
:1027E000B4AEBFDAC4A3CABD0A00CFB5CDB3B4AE90
:1027F000BFDAC4A3CABD0A005441534B2049443A2E
:10280000200053797374656D54696D653A200055E5
:1028100041525420434D442048656C703A200A2DA3
:102820002D2D2D2D2D2D2D2D2D2D2D2D0A002D2D28
:102830002D2D2D2D2D2D2D2D2D2D2D0A00CFB5CD4E
:10284000B3B8BAD4D83A007CC8CECEF1D5BCD3C385
:10285000C1BF3A007CBFB4C3C5B9B7D7B4CCAC3A9A
:1028600000BFAAC6F400B9D8B1D5007CCFB5CDB3AE
:10287000CAB1BCE4CAB1BCE4B4C13A000A004F55C5
:102880002033205253542031204953502032204FBE
:102890004654203720504849203131204F46572098
:1028A0003132204F5057203133204F505420313493
:1028B000205154532031352051535420313620516A
:1028C000525420313720505044203920494E464F31
:1028D0002034204F5054552035204F465455203633
:1028E000205049444C203820504C4F572031302044
:1028F00048454C50203138004E6572766520525460
:102900004F532053756363657373205374617274FE
:10291000210A004E657276652052544F532046615D
:0B2920006C69205374617274210A007E
:00000001FF
